:100000000C94C2040C9465280C94DF040C94DF0457
:100010000C94DF040C94DF040C94DF040C94DF04D4
:100020000C94DF040C94DF040C94DF040C94DF04C4
:100030000C94DF040C94DF040C94DF040C94DF04B4
:100040000C942E280C94DF040C94DF040C94DF0431
:100050000C94DF040C94DF040C94DF040C94DF0494
:100060000C94DF040C94DF040C948A2A0C94DF04B3
:100070000C94DF040C94DF040C94DF045730F42C50
:10008000F42CF42CF42CF42CF42CF42CF42CF42C70
:10009000F42CF42CF42CF42C0C35F42CF42CF42C3F
:1000A000F42CF42CF42CF42CF42CF42C5635F42CE5
:1000B000DC32CE33E132F42C2D37F42C3C303637A1
:1000C0004D356431F42C2335C132F42CF42C21331A
:1000D00060307B3541351B35343426364D4355531E
:1000E00052203D2025640A000A4F5637363730200B
:1000F00043616D6572612054657374204170706C4A
:1001000069636174696F6E2E0A004C464E20446923
:100110007361626C6564002C20436F6465207061BC
:1001200067653A2025750A00525443206973206E92
:100130006F7420737570706F727465642E20416CDB
:100140006C2066696C65732077696C6C20686176D9
:10015000652074696D657374616D70206F66203001
:100160000A0054574920496E697469616C69736566
:10017000642E0A004649464F20496E697469616CD5
:10018000697365642025640A004F5637363730207E
:10019000496E697469616C6973653A2025640A0067
:1001A00072633D25640A00536563746F723A256C6F
:1001B000750A0072633D25640A0044726976652001
:1001C00073697A653A20256C7520736563746F7264
:1001D000730A00457261736520626C6F636B3A202D
:1001E000256C7520736563746F72730A00436172C6
:1001F0006420747970653A2025750A004353443AA7
:100200000A004349443A0A004F43523A0A00534411
:10021000205374617475733A0A004D6F64656C3ACB
:100220002025730A00532F4E3A2025730A002530EB
:10023000345820253032582D003F3F3F0A0072636A
:100240003D25750A0072633D25750A00464154201C
:1002500074797065203D2025750A42797465732F85
:10026000436C7573746572203D20256C750A4E755C
:100270006D626572206F662046415473203D2025D3
:10028000750A526F6F742044495220656E7472690A
:100290006573203D2025750A536563746F72732F53
:1002A000464154203D20256C750A4E756D6265727D
:1002B000206F6620636C757374657273203D202512
:1002C0006C750A46415420737461727420286C6204
:1002D0006129203D20256C750A44495220737461C0
:1002E000727420286C62612C636C7573746F722950
:1002F000203D20256C750A4461746120737461721D
:100300007420286C626129203D20256C750A0A2E14
:100310002E2E000D25752066696C65732C20256CCA
:10032000752062797465732E0A257520666F6C647A
:100330006572732E0A256C75204B4220746F7461B0
:100340006C206469736B2073706163652E0A256C81
:1003500075204B4220617661696C61626C652E0A82
:1003600000256325632563256325632025752F25D7
:100370003032752F2530327520253032753A2530D0
:1003800032752025396C75202025730025347520A1
:1003900046696C652873292C2531306C752062798B
:1003A00074657320746F74616C0A25347520446918
:1003B00072287329002C202531306C754B2062790E
:1003C00074657320667265650A0066707472203DFC
:1003D00020256C75283078256C58290A00256C7505
:1003E000206279746573207265616420776974682E
:1003F00020256C752062797465732F7365632E0AEE
:1004000000256C7520627974657320777269747445
:10041000656E207769746820256C75206279746533
:10042000732F7365632E0A004F70656E696E6720C7
:1004300022257322000A4372656174696E67202267
:10044000257322000A436F7079696E672E2E2E0085
:100450000A256C7520627974657320636F70696515
:1004600064207769746820256C75206279746573DF
:100470002F7365632E0A005B4469736B20636F6E94
:10048000746F726C735D0A206469203C7064233E53
:10049000202D20496E697469616C697A65206469F0
:1004A000736B0A206464205B3C7064233E203C73C1
:1004B0006563743E5D202D2044756D70206120734E
:1004C000656372746F720A206473203C7064233E0B
:1004D000202D2053686F77206469736B20737461DB
:1004E0007475730A5B42756666657220636F6E741D
:1004F000726F6C735D0A206264203C6F66733E20ED
:100500002D2044756D7020776F726B696E67206265
:1005100075666665720A206265203C6F66733E20D0
:100520005B3C646174613E5D202E2E2E202D2045A3
:1005300064697420776F726B696E67206275666696
:1005400065720A206272203C7064233E203C736511
:1005500063743E205B3C6E756D3E5D202D205265C0
:100560006164206469736B20696E746F20776F72A9
:100570006B696E67206275666665720A2062772015
:100580003C7064233E203C736563743E205B3C6E8C
:10059000756D3E5D202D20577269746520776F72EE
:1005A0006B696E672062756666657220696E746F2E
:1005B000206469736B0A206266203C76616C3E2081
:1005C0002D2046696C6C20776F726B696E672062B4
:1005D00075666665720A5B46696C6520737973742B
:1005E000656D20636F6E74726F6C735D0A2066694F
:1005F000203C6C64233E202D20466F726365206989
:100600006E697469616C697A6564207468652076C6
:100610006F6C756D650A206673205B3C7061746851
:100620003E5D202D2053686F7720766F6C756D6569
:10063000207374617475730A20666C205B3C706172
:1006400074683E5D202D2053686F772061206469B7
:10065000726563746F72790A20666F203C6D6F64F7
:10066000653E203C66696C653E202D204F70656EAE
:1006700020612066696C650A206663202D20436C2A
:100680006F7365207468652066696C650A2066650D
:10069000203C6F66733E202D204D6F76652066707E
:1006A00020696E206E6F726D616C207365656B0AD8
:1006B000206664203C6C656E3E202D20526561648E
:1006C00020616E642064756D7020746865206669B1
:1006D0006C650A206672203C6C656E3E202D2052AF
:1006E000656164207468652066696C650A206677B8
:1006F000203C6C656E3E203C76616C3E202D205780
:100700007269746520746F207468652066696C6511
:100710000A20666E203C6F7267206E616D653E2018
:100720003C6E6577206E616D653E202D2052656EB2
:10073000616D6520616E206F626A6563740A206670
:1007400075203C6F626A206E616D653E202D2055DC
:100750006E6C696E6B20616E206F626A6563740AED
:10076000206676202D205472756E63617465207446
:1007700068652066696C65206174206375727265B6
:100780006E742066700A20666B203C646972206E6D
:10079000616D653E202D2043726561746520612086
:1007A0006469726563746F72790A206661203C61C6
:1007B0007472723E203C6D61736B3E203C6F626AC6
:1007C000656374206E616D653E202D204368616E07
:1007D0006765206F626A6563742061747472696210
:1007E0007574650A206674203C796561723E203C10
:1007F0006D6F6E74683E203C6461793E203C686F8A
:1008000075723E203C6D696E3E203C7365633E20F0
:100810003C6F626A656374206E616D653E202D20B9
:100820004368616E67652074696D657374616D708E
:10083000206F6620616E206F626A6563740A2066AD
:1008400078203C7372632066696C653E203C64735B
:10085000742066696C653E202D20436F707920619D
:100860002066696C650A206667203C706174683E8A
:10087000202D204368616E67652063757272656E16
:1008800074206469726563746F72790A20666A20E5
:100890003C6C64233E202D204368616E67652063B5
:1008A000757272656E742064726976650A2066716D
:1008B000202D2053686F772063757272656E7420E7
:1008C0006469726563746F72790A20666D203C6C8E
:1008D00064233E203C72756C653E203C636C7573EE
:1008E0007465722073697A653E202D2043726561BC
:1008F00074652066696C652073797374656D0A5B35
:100900004D69736320636F6D6D616E64735D0A2062
:1009100070202D2053746F72652061204269746DC0
:1009200061702050686F746F20746F206F70656EF7
:100930002046696C650A0A002530386C5820002072
:10094000253032580072633D25752046525F25538D
:100950000A0046696C6520577269746520466169B2
:100960006C203A2025640053756363657373210A14
:1009700000436C6F73696E672046696C653A202589
:10098000640A000011241FBECFEFD0E1DEBFCDBF4F
:1009900012E0A0E0B1E0E6ECFFE602C005900D92A7
:1009A000AC37B107D9F71DE0ACE7B2E001C01D924A
:1009B000A838B107E1F70E94672C0C94E1370C943A
:1009C00000000F931F93CF93DF9300D000D0CDB7DB
:1009D000DEB705ED14E0C80140E050E0BA010E9426
:1009E0006F1EC80160E071E02EE030E040E050E0B2
:1009F0008E010F5F1F4F0E945D1B0F900F900F9095
:100A00000F90DF91CF911F910F9108950F931F9336
:100A1000CF93DF9300D000D0CDB7DEB705ED14E063
:100A2000C8014EE050E060E070E00E946F1EC80117
:100A30006EE071E02CE730E040E050E08E010F5FA7
:100A40001F4F0E945D1B0F900F900F900F90DF9132
:100A5000CF911F910F910895EEE6F0E080818260C2
:100A6000808384B5826084BD85E787BD85B5856058
:100A700085BD789408958EBD0DB407FEFDCF8EB56B
:100A8000089582E380937C028FEF0E943B058F3FA5
:100A900021F090917C029923B9F721E030E08F3F5B
:100AA00011F020E030E0C90108952C9A8FEF0E94E8
:100AB0003B0508952C988FEF0E943B050E9441054D
:100AC000009729F40E94550580E090E0089581E0A8
:100AD00090E00895FF920F931F93CF93DF93C82F59
:100AE000D42F152F062FF72E87FF09C087E340E08C
:100AF00050E0BA010E946A05823088F5CF770E94E3
:100B000055050E945A05009749F18C2F80640E9478
:100B10003B058F2D0E943B05802F0E943B05812FB6
:100B20000E943B058D2F0E943B05CC2321F0C8304D
:100B300021F081E003C085E901C087E80E943B0500
:100B4000CC3019F48FEF0E943B05CAE08FEF0E9472
:100B50003B0587FF04C0C150C9F701C08FEFDF918B
:100B6000CF911F910F91FF900895CF92DF92EF9256
:100B7000FF92CF93DF93EC016A017B0184E18093C4
:100B80007D028FEF0E943B058F3F29F480917D020B
:100B90008823B9F726C08E3F21F58FEF8EBD0DB4A7
:100BA00007FEFDCF9EB598838EBD0DB407FEFDCF29
:100BB0009EB5998322962EEF3FEF4FEF5FEFC20E67
:100BC000D31EE41EF51EC114D104E104F10431F773
:100BD0008FEF0E943B058FEF0E943B0581E090E084
:100BE00002C080E090E0DF91CF91FF90EF90DF9026
:100BF000CF9008951F93CF93DF93EC01162F0E949F
:100C00004105009759F1812F0E943B051D3F19F1C5
:100C1000CE0180509E4F28812EBD0DB407FEFDCF22
:100C200029812EBD22960DB407FEFDCFC817D90726
:100C300091F78FEF0E943B058FEF0E943B058FEFEE
:100C40000E943B058F7121E030E0853011F020E0FB
:100C500030E0C90105C081E090E002C080E090E092
:100C6000DF91CF911F910895DF92EF92FF920F9342
:100C70001F93CF93DF9300D000D0CDB7DEB788238A
:100C800009F0ACC01CBC8FEE85B98FE484B98091AB
:100C90008A0181FDA0C080E185B980EB84B981E53E
:100CA0008CBD82E58CBD1AE08FEF0E943B05115090
:100CB000D9F780E040E050E0BA010E946A05813037
:100CC00009F075C084E680937D0288E04AEA51E02D
:100CD00060E070E00E946A05813009F03FC07E014B
:100CE0000894E11CF11C870184E0D82E8FEF0E944C
:100CF0003B05F80181938F01DA94C1F78B81813034
:100D000009F055C08C818A3A09F051C080917D026A
:100D1000882349F089EA40E050E060E070E40E94F6
:100D20006A05882399F780917D02882309F43FC0E2
:100D30008AE340E050E0BA010E946A058823B9F5D1
:100D400014E08FEF0E943B05F70181937F01115062
:100D5000C1F7898186FF29C00CE02AC089EA40E0FA
:100D600050E0BA010E946A05823018F402E019EAE4
:100D700002C001E011E080917D02882341F0812FC3
:100D800040E050E0BA010E946A058823A1F78091F3
:100D90007D02882361F080E140E052E060E070E095
:100DA0000E946A05882319F403C004E001C000E032
:100DB00000937E020E945505002341F080918A0134
:100DC0008E7F80938A0180E58CBD05C01CBC8FEEB0
:100DD00085B98FE484B980918A0101C081E00F90C8
:100DE0000F900F900F90DF91CF911F910F91FF9077
:100DF000EF90DF900895882319F480918A01089577
:100E000081E008950F93CF93DF93EB01BA01A9011D
:100E1000882309F044C0002309F441C080918A016D
:100E200080FD3FC080917E0283FD07C099E0440FA2
:100E3000551F661F771F9A95D1F7013079F481E12C
:100E40000E946A05882321F5CE0140E052E060E06F
:100E500070E00E94B5050097D1F41AC082E10E94AB
:100E60006A058823A9F4CE0140E052E060E070E01A
:100E70000E94B505009721F0C050DE4F015099F750
:100E80008CE040E050E0BA010E946A0501C000E039
:100E90000E94550581E0002329F480E003C084E02E
:100EA00001C083E0DF91CF910F910895CF92DF923F
:100EB000EF92FF920F93CF93DF93EB0169017A01D9
:100EC000882309F055C0002309F452C080918A019B
:100ED00080FD50C080918A0182FD4EC080917E02CB
:100EE00090E083FD07C029E0CC0CDD1CEE1CFF1C4C
:100EF0002A95D1F7013071F488E1B701A6010E946B
:100F00006A05882371F5CE016EEF0E94FA050097FD
:100F100029F527C086709070009739F0402F50E077
:100F200060E070E087E90E946A0589E1B701A601E7
:100F30000E946A058823A9F4CE016CEF0E94FA058D
:100F4000009721F0C050DE4F0150B1F780E090E0F3
:100F50006DEF0E94FA05009719F003C000E001C090
:100F600001E00E94550581E0002339F480E005C0CE
:100F700084E003C083E001C082E0DF91CF910F9154
:100F8000FF90EF90DF90CF900895FF920F931F9303
:100F9000CF93DF93CDB7DEB761970FB6F894DEBF7E
:100FA0000FBECDBF8A01882309F07CC1653091F462
:100FB000FA018081882321F0813009F073C106C0D5
:100FC0001CBC8FEE85B98FE484B902C0FA0181831D
:100FD00080E06BC180918A0180FD66C16A3009F4AE
:100FE0001AC16B3058F46130F1F06130A0F062301A
:100FF00009F47FC0633009F04BC181C06C3009F443
:1010000011C16C3008F40CC16D3009F419C16E3097
:1010100009F03EC128C10E945A05009709F43AC15F
:101020000E94550539C189E040E050E0BA010E94B4
:101030006A05882309F02EC1CE01019640E150E0F7
:1010400060E070E00E94B505009709F423C1998122
:1010500092959695969593708885913009F590E0D4
:10106000A0E0B0E08F739070A070B070DC019927A1
:1010700088270196A11DB11D398520E04A85240FDE
:10108000311DA90160E070E0840F951FA61FB71FF6
:10109000EAE0880F991FAA1FBB1FEA95D1F7B5C0D8
:1010A0002985229526952695237090E0880F991F13
:1010B000880F991F820F911D01962F8130E02370B8
:1010C0003070322F2227330F330F820F931FA0E08F
:1010D000B0E02E812F703B85331F3327331F230F42
:1010E0002E5F3A853370330F230F30E029503040A4
:1010F0002FC080E092E0FA0191838083CDC0F09010
:101100007E02F2FE2DC08DE840E050E0BA010E9460
:101110006A05882309F0BEC08FEF0E943B05CE010F
:10112000019640E150E060E070E00E94B505009754
:1011300009F4B0C0F0E3FF2E8FEF0E943B05FA9454
:10114000D9F72B8522952F7080E190E0A0E0B0E0E8
:1011500004C0880F991FAA1FBB1F2A95D2F755C03C
:1011600089E040E050E0BA010E946A05882309F056
:1011700091C0CE01019640E150E060E070E00E9435
:10118000B505009709F486C08C85F1FE1BC0881F49
:101190008827881F90E001962B8530E02F733070F0
:1011A000220F331F820F931F2E8522952695269599
:1011B000237030E02150304002C0880F991F2A95DB
:1011C000E2F721C0482F50E04370507063E0440FB5
:1011D000551F6A95E1F7829586958770480F511DD6
:1011E0004F5F5F4F8B8590E08C77907095958795DA
:1011F000959587950196489F9001499F300D589F7E
:10120000300D1124C901A0E0B0E0F8018083918382
:10121000A283B38341C080917E02FA0180833CC0E7
:1012200089E001C08AE040E050E0BA010E946A050E
:10123000882381F5C80140E150E060E070E023C000
:101240008AE340E050E0BA010E946A05882311F564
:1012500034E0F32E8FEF0E943B05F80181938F015C
:10126000FA94C1F719C08DE840E050E0BA010E943D
:101270006A05882379F48FEF0E943B05C80140E49A
:1012800050E060E070E00E94B505009729F402C0CC
:1012900084E003C081E001C080E0898B0E94550595
:1012A000898903C084E001C083E061960FB6F89499
:1012B000DEBF0FBECDBFDF91CF911F910F91FF9089
:1012C000089580917D02882319F0815080937D02DA
:1012D00080917C02882319F0815080937C02809158
:1012E0008A01189B02C0846001C08B7F199902C0DB
:1012F0008D7F01C0836080938A010895DB01BA016C
:10130000A901FD01DC0106C081918D93415050403F
:10131000604070404115510561057105A9F70895B8
:10132000FC01428F538FAB0166277727448B558B87
:101330000895EF92FF920F931F93CF93DF93FC01D9
:101340007B018B01075F1F4F86859785A089B18937
:101350000097A105B10509F463C0C289D389FE01D4
:10136000D80180E090E08D012191203249F02530B4
:1013700009F425EE2D938D0101968830910599F79A
:101380008885803299F0FD018EE28193CE01089626
:10139000AD014C5F5F4F8F01DC012D91CD012032FB
:1013A00029F021938F01E417F507A9F78B85F70141
:1013B00080874F8D50E060E070E0742F66275527DE
:1013C00044278E8D90E0A0E0B0E0DC0199278827CB
:1013D000482B592B6A2B7B2B8C8D90E0A0E0B0E042
:1013E000482B592B6A2B7B2B9D8D80E0A0E0B0E031
:1013F000482B592B6A2B7B2B408351836283738349
:10140000398D20E0888D90E0822B932B9583848307
:101410009F8980E02E8930E0282B392B3783268363
:10142000F8011082DF91CF911F910F91FF90EF9003
:1014300008956F927F928F929F92AF92BF92CF92B8
:10144000DF92EF92FF920F931F93CF93DF93EC0104
:101450004A015B01CEA4DFA4E8A8F9A8C416D5060A
:10146000E606F70609F44CC08C818823A1F132E32B
:10147000632E712C6C0E7D1E8981B301A70196012C
:1014800001E00E9456078823E9F51C828E8D9F8D0E
:10149000A8A1B9A14AA15BA16CA17DA1840F951F50
:1014A000A61FB71FC816D906EA06FB06A0F41B81C3
:1014B00010C08E8D9F8DA8A1B9A1C80ED91EEA1E9D
:1014C000FB1E8981B301A701960101E00E94560726
:1014D0001150123070F781149104A104B10481F00D
:1014E000BE016E5C7F4F8981A501940101E00E94DD
:1014F0000207882339F48EA69FA6A8AAB9AA03C01A
:1015000080E001C081E0DF91CF911F910F91FF90AA
:10151000EF90DF90CF90BF90AF909F908F907F9093
:101520006F9008950F93CF93DF93EC0140E050E06C
:10153000BA010E94190A982F882309F075C0888182
:10154000833009F067C08D81882309F463C01EA62B
:101550001FA618AA19AABE016E5C7F4FCE018E5C31
:101560009D4FFB0101C01192E817F907E1F7FE0159
:10157000E05DFD4F85E58083FE01EF5CFD4F8AEA6B
:10158000808382E58AAB8BAB81E68CAB91E49DAB2B
:10159000FE01EA5EFD4F22E72083FE01E95EFD4F7A
:1015A0002083FE01E85EFD4F9083FE01E75EFD4F64
:1015B00080833E852F8598898989FE01E65EFD4FEF
:1015C0003083FE01E55EFD4F2083FE01E45EFD4FAA
:1015D0009083FE01E35EFD4F80833A852B859C85D9
:1015E0008D85FE01E25EFD4F3083FE01E15EFD4F21
:1015F0002083FE01E05EFD4F9083FE01EF5DFD4F15
:1016000080832A893B894C895D89898101E00E9418
:1016100056071D82898160E040E050E00E94C507C6
:1016200091E0882309F490E0892FDF91CF910F9109
:1016300008950F931F93FB01338D20E0028D10E07E
:10164000022B132B20E030E0833079F4558940E001
:10165000848990E0842B952BA0E0B0E0DC019927F1
:101660008827082B192B2A2B3B2BB801C9011F9166
:101670000F910895DC01ED91FC9111973097A9F03D
:101680008081882391F02681378112968D919C91DB
:1016900013972817390759F481810E94FB0680FFB0
:1016A00002C083E0089580E0089589E0089589E00C
:1016B00008950F93CF93DF93EC019A01AB01BC0126
:1016C0006E5C7F4F898101E00E940207882309F048
:1016D00083C0FE01EF5CFD4F908180E0FE01E05D84
:1016E000FD4F208130E0282B392B8AEA2535380739
:1016F00009F074C0FE01E559FF4F408150E060E001
:1017000070E0742F662755274427FE01E659FF4FE6
:10171000808190E0A0E0B0E0DC0199278827482B89
:10172000592B6A2B7B2BFE01E859FF4F808190E0FB
:10173000A0E0B0E0482B592B6A2B7B2BFE01E75928
:10174000FF4F908180E0A0E0B0E0482B592B6A2B3E
:101750007B2B7070463491E4590794E5690790E05B
:101760007907F1F1FE01E957FF4F408150E060E059
:1017700070E0742F662755274427FE01EA57FF4F74
:10178000808190E0A0E0B0E0DC0199278827482B19
:10179000592B6A2B7B2BFE01EC57FF4F808190E089
:1017A000A0E0B0E0482B592B6A2B7B2BFE01EB57B6
:1017B000FF4F908180E0A0E0B0E0482B592B6A2BCE
:1017C0007B2B707081E0463491E4590794E56907FA
:1017D00090E0790731F404C083E003C082E001C0E7
:1017E00080E0DF91CF910F9108953F924F925F92E9
:1017F0006F927F928F929F92AF92BF92CF92DF9221
:10180000EF92FF920F931F93CF93DF93CDB7DEB785
:1018100060970FB6F894DEBF0FBECDBFDC019B0111
:10182000042FED91FC911197408150E040535040BE
:10183000662757FD6095762F4A3051056105710581
:1018400048F481818A3331F4CF01029611969C933A
:101850008E9305C04091810250E060E070E0D901B4
:1018600011961C921E92411551056105710509F0F2
:10187000D4C3E0917F02F0918002F88BEF8730971C
:1018800009F4CDC31196FC93EE938081882359F01F
:1018900081810E94FB0680FD06C0002309F4C1C3BC
:1018A00082FDC3C3BEC3AF85B8891C9211961C923A
:1018B00080E00E94340680FDB6C3002311F082FD53
:1018C000B4C38F85988940E050E0BA010E94590B5B
:1018D000813009F046C0EF85F889EC50FE4F8081D9
:1018E000882309F4A6C3EF85F889E550FE4F80816F
:1018F00090E0A0E0B0E0582F442733272227EF855F
:10190000F889E650FE4F808190E0A0E0B0E0DC0175
:1019100099278827282B392B4A2B5B2BEF85F889B1
:10192000E850FE4F808190E0A0E0B0E0282B392BFA
:101930004A2B5B2BEF85F889E750FE4F908180E0C2
:10194000A0E0B0E0282B392B4A2B5B2B29833A836C
:101950004B835C838F859889BA01A9010E94590B3A
:1019600004C019821A821B821C82833009F45FC36F
:10197000882309F05EC3AF85B889DE963C91DE9777
:1019800020E0DD968C91DD9790E0822B932BB2E0E6
:1019900080309B0709F04DC3EF85F889E75BFF4F67
:1019A000908180E0EF85F889E85BFF4F208130E08F
:1019B000282B392BA90160E070E04D835E836F8393
:1019C00078874115510561057105B9F5EF85F889ED
:1019D000E75AFF4F808190E0A0E0B0E0582F442705
:1019E00033272227EF85F889E85AFF4F808190E05E
:1019F000A0E0B0E0DC0199278827282B392B4A2B5F
:101A00005B2BEF85F889EA5AFF4F808190E0A0E0D8
:101A1000B0E0282B392B4A2B5B2BEF85F889E95A4C
:101A2000FF4F908180E0A0E0B0E0282B392B4A2BBB
:101A30005B2B2D833E834F8358874D815E816F8161
:101A40007885AF85B8895E964D935D936D937C9351
:101A50009197FD01EE5BFF4F408113964C931397D6
:101A6000842F8150823008F0E4C2DF963C90DF97EB
:101A700012963C921297332009F4DBC2232D30E0FA
:101A8000C901019782239323009709F0D2C2FD0177
:101A9000EC5BFF4F908180E0FD01ED5BFF4F20810B
:101AA000E22FF0E0E82BF92BFA87E9871996FC93EF
:101AB000EE931897CF018F709070009709F0B9C21C
:101AC000FD01EA5BFF4F908180E0FD01EB5BFF4F82
:101AD00080809924882A992AAA24BB2481149104FD
:101AE000A104B10489F5FD01EB5AFF4F80809924D0
:101AF000AA24BB24B82CAA2499248824FD01EC5ADA
:101B0000FF4F808190E0A0E0B0E0DC0199278827BA
:101B1000882A992AAA2ABB2AEF85F889EE5AFF4F0C
:101B2000808190E0A0E0B0E0882A992AAA2ABB2A06
:101B3000EF85F889ED5AFF4F908180E0A0E0B0E09A
:101B4000882A992AAA2ABB2AEF85F889EF5BFF4FDA
:101B5000908180E0EF85F889E05CFF4F008110E024
:101B6000082B192B0115110509F463C2242F30E04D
:101B700040E050E06D817E818F8198850E945C37C6
:101B80006B877C878D879E87280166247724C9848C
:101B9000DA84E4E0D694C794EA95E1F7EE24FF24D2
:101BA000C40CD51CE61CF71CC60ED71EE81EF91E79
:101BB0008C149D04AE04BF0408F43BC2C501B401FB
:101BC0006C197D098E099F09232D30E040E050E01B
:101BD0000E947B3789019A01011511052105310504
:101BE00009F427C2063FFFE01F07F0E02F07F0E0EF
:101BF0003F0758F0063F4FEF140740E0240740E04E
:101C0000340730F462E0362E05C03324339402C02A
:101C100053E0352E42E0842E912CA12CB12C800E65
:101C2000911EA21EB31EAF85B8895A968D929D92C1
:101C3000AD92BC925D9729813A814B815C81C20E45
:101C4000D31EE41EF51E9A96CD92DD92ED92FC9283
:101C50009D9789019A01040D151D261D371DFD0153
:101C600002A313A324A335A3F3E03F1609F049C050
:101C700029853A852115310509F0DBC1FD01EF59B0
:101C8000FF4F408150E060E070E0742F66275527D9
:101C90004427FD01E05AFF4F808190E0A0E0B0E0D2
:101CA000DC0199278827482B592B6A2B7B2BEF8542
:101CB000F889E25AFF4F808190E0A0E0B0E0482B25
:101CC000592B6A2B7B2BEF85F889E15AFF4F9081C6
:101CD00080E0A0E0B0E0482B592B6A2B7B2BAF852E
:101CE000B88996964D935D936D937C939997D501A2
:101CF000C40122E0880F991FAA1FBB1F2A95D1F7A4
:101D00002EC0E985FA85309709F493C18B859C85AF
:101D1000AD85BE85800F911FA21FB31FEF85F88987
:101D200086A397A3A0A7B1A7D501C401880F991FC7
:101D3000AA1FBB1FF2E03F1691F0880D991DAA1D46
:101D4000BB1DB695A7959795879595018401017060
:101D5000107020703070800F911FA21FB31F815030
:101D60009E4FAF4FBF4F39E0B695A7959795879592
:101D70003A95D1F72D813E814F8158852817390733
:101D80004A075B0708F455C18FEF9FEFDC01EF8531
:101D9000F88986879787A08BB18B12861386148665
:101DA0001586B3E03B1609F01BC11582ED59FF4FB4
:101DB000908180E0EF85F889EE59FF4F008110E0B7
:101DC000082B192B20E030E049815A816B817C81FE
:101DD000040F151F261F371FAF85B88952960D9324
:101DE0001D932D933C935597BD016E5C7F4F1196CB
:101DF0008C91A901980101E00E940207882309F053
:101E0000EFC0EF85F889EF5CFD4F908180E0EF85B2
:101E1000F889E05DFD4F208130E0282B392BBAEAAC
:101E200025353B0709F0DCC0EF85F88945A950E06E
:101E300060E070E0742F66275527442784A990E05E
:101E4000A0E0B0E0DC0199278827482B592B6A2BAA
:101E50007B2B82A990E0A0E0B0E0482B592B6A2BA5
:101E60007B2B93A980E0A0E0B0E0482B592B6A2B94
:101E70007B2B4235F2E55F07F1E66F07F1E47F0760
:101E800009F0AEC0EF85F889E75EFD4F408150E074
:101E900060E070E0742F662755274427EF85F889A6
:101EA000E85EFD4F808190E0A0E0B0E0DC01992782
:101EB0008827482B592B6A2B7B2BEF85F889EA5E04
:101EC000FD4F808190E0A0E0B0E0482B592B6A2BB9
:101ED0007B2BEF85F889E95EFD4F908180E0A0E0E3
:101EE000B0E0482B592B6A2B7B2B423722E7520755
:101EF00021E4620721E6720709F072C0EF85F889D4
:101F0000EF5DFD4F408150E060E070E0742F662788
:101F100055274427EF85F889E05EFD4F808190E0EA
:101F2000A0E0B0E0DC0199278827482B592B6A2BC9
:101F30007B2BEF85F889E25EFD4F808190E0A0E089
:101F4000B0E0482B592B6A2B7B2BEF85F889E15E9B
:101F5000FD4F908180E0A0E0B0E0482B592B6A2B28
:101F60007B2BAF85B8891A964D935D936D937C93C7
:101F70001D97FD01E35EFD4F408150E060E070E0A1
:101F8000742F662755274427FD01E45EFD4F8081AD
:101F900090E0A0E0B0E0DC0199278827482B592B7E
:101FA0006A2B7B2BEF85F889E65EFD4F808190E000
:101FB000A0E0B0E0482B592B6A2B7B2BEF85F889EA
:101FC000E55EFD4F908180E0A0E0B0E0482B592B0A
:101FD0006A2B7B2BEF85F88946875787608B718B3F
:101FE000AF85B8893C9280918202909183020196DC
:101FF000909383028093820217969C938E931697F8
:10200000FD0116A617A610AA11AA148256961D92B3
:102010001D921D921C92599704C08BE00BC08CE05E
:1020200009C080E007C083E005C08AE003C081E00A
:1020300001C08DE060960FB6F894DEBF0FBECDBF35
:10204000DF91CF911F910F91FF90EF90DF90CF9094
:10205000BF90AF909F908F907F906F905F904F90C8
:102060003F90089560E070E0CB0108950F931F93B7
:10207000CF93DF93EC01DB01CA010297A109B109FB
:102080004A8D5B8D6C8D7D8D42505040604070401C
:1020900084179507A607B70798F42A8130E040E037
:1020A00050E0BC01CD010E945C378B019C018AA5E8
:1020B0009BA5ACA5BDA5080F191F2A1F3B1F03C078
:1020C00000E010E09801B801C901DF91CF911F91A4
:1020D0000F9108958F929F92AF92BF92CF92DF920D
:1020E000EF92FF920F931F93CF93DF93EC014A017E
:1020F0005B01423051056105710508F4E9C08A8D24
:102100009B8DAC8DBD8D481759076A077B0708F07A
:10211000DFC08881823009F475C0833009F493C030
:10212000813009F0D1C06A017B01F694E794D7941D
:10213000C794C40ED51EE61EF71EB701A60189E09E
:1021400076956795579547958A95D1F78AA19BA172
:10215000ACA1BDA1480F591F6A1F7B1FCE010E9471
:10216000190A882309F0B0C0D701C6019170A07088
:10217000B070FE01E80FF91F02A90894C11CD11C20
:10218000E11CF11CB701A60119E0769567955795FA
:1021900047951A95D1F78AA19BA1ACA1BDA1480F83
:1021A000591F6A1F7B1FCE010E94190A882309F05C
:1021B0008BC0802F90E0A0E0B0E02FEF31E040E056
:1021C00050E0C222D322E422F522CC0DDD1D1AA953
:1021D00000E0222717FD2095322F082B192B2A2BE0
:1021E0003B2BF401E170F070309741F0C4E036957C
:1021F000279517950795CA95D1F76EC01F70207067
:1022000030706AC0452F562F672F77278AA19BA170
:10221000ACA1BDA1480F591F6A1F7B1FCE010E94B0
:10222000190A882309F050C0F401EE0FFF1FF17066
:10223000EC0FFD1F93A980E002A910E0082B192BD9
:1022400020E030E049C0E7E07695679557954795DF
:10225000EA95D1F78AA19BA1ACA1BDA1480F591F56
:102260006A1F7B1FCE010E94190A882369F5F401B9
:10227000EE0FFF1FEE0FFF1FF170EC0FFD1F05A902
:1022800010E020E030E0302F22271127002784A91A
:1022900090E0A0E0B0E0DC0199278827082B192BFB
:1022A0002A2B3B2B82A990E0A0E0B0E0082B192B51
:1022B0002A2B3B2B93A980E0A0E0B0E0082B192B40
:1022C0002A2B3B2B3F7008C00FEF1FEF980104C073
:1022D00001E010E020E030E0B801C901DF91CF91CA
:1022E0001F910F91FF90EF90DF90CF90BF90AF9034
:1022F0009F908F900895EF92FF920F931F93CF932B
:10230000DF938C017B01DC0115967C936E9314970F
:1023100016964D915D916D917C91199741305105C3
:102320006105710509F493C0ED91FC91828D938D47
:10233000A48DB58D481759076A077B0708F087C039
:10234000411551056105710531F58081833049F4EE
:1023500046A157A160A571A54115510561057105FB
:10236000D1F4D8011A961D921D921D921C921D97B0
:1023700080859185E816F90608F069C0C701B4E0C8
:1023800096958795BA95E1F7A0E0B0E046A157A1F0
:1023900060A571A53FC0C281D0E0A4E0CC0FDD1FD5
:1023A000AA95E1F721C00E946A10AB01BC014F3F22
:1023B000FFEF5F07FFEF6F07FFEF7F0709F445C0EF
:1023C000423051056105710508F441C0D801ED9115
:1023D000FC91828D938DA48DB58D481759076A079E
:1023E0007B07A8F5EC1AFD0AF80180819181EC16B3
:1023F000FD06C8F642875387648775870E943610AA
:10240000AB01BC01C70134E0969587953A95E1F799
:10241000A0E0B0E0840F951FA61FB71FF8018687C4
:102420009787A08BB18B80819181C296BFE0EB2210
:10243000FF2425E0EE0CFF1C2A95E1F78E0D9F1D71
:10244000F801938B828B80E003C081E001C082E0C1
:10245000DF91CF911F910F91FF90EF9008954F92D0
:102460005F926F927F928F929F92AF92BF92CF9224
:10247000DF92EF92FF920F931F93CF93DF93EC01C4
:102480006A017B012801390142305105610571055E
:1024900008F4CDC08A8D9B8DAC8DBD8D4817590732
:1024A0006A077B0708F0C3C08881823009F470C0D6
:1024B000833009F487C0813009F0B5C04A015B015F
:1024C000B694A79497948794840E951EA61EB71E63
:1024D000B501A40119E076956795579547951A952A
:1024E000D1F78AA19BA1ACA1BDA1480F591F6A1FBA
:1024F0007B1FCE010E94190A882309F095C0F401C0
:10250000F17081E0C822DD24EC0FFD1FC114D1045D
:1025100039F092A99F70842D8295807F892B01C00C
:10252000842D82AB0894811C911CA11CB11C81E0FC
:102530008C83B501A401A9E07695679557954795D9
:10254000AA95D1F78AA19BA1ACA1BDA1480F591FA3
:102550006A1F7B1FCE010E94190A882309F064C0FC
:10256000F401F170EC0FFD1FC114D10451F0B3015F
:10257000A20134E076956795579547953A95D1F73E
:1025800005C042A9407F952D9F70492B42AB4CC09E
:10259000452F562F672F77278AA19BA1ACA1BDA1FC
:1025A000480F591F6A1F7B1FCE010E94190A8823FA
:1025B000D9F5F601EE0FFF1FF170EC0FFD1F42AAD7
:1025C00053AA32C087E076956795579547958A95C7
:1025D000D1F78AA19BA1ACA1BDA1480F591F6A1FC9
:1025E0007B1FCE010E94190A8823F1F4F601EE0F39
:1025F000FF1FEE0FFF1FF170EC0FFD1F45A950E00C
:1026000060E070E0742F66275527442740705070B3
:102610006070707F442955296629772942AB53ABF6
:1026200064AB75AB01C082E091E09C8301C082E0A5
:10263000DF91CF911F910F91FF90EF90DF90CF909E
:10264000BF90AF909F908F907F906F905F904F90D2
:1026500008954F925F926F927F928F929F92AF9266
:10266000BF92CF92DF92EF92FF920F931F93CF937F
:10267000DF93EC012A013B0141155105610571050C
:1026800099F48A849B84AC84BD8481149104A10450
:10269000B10409F18A8D9B8DAC8DBD8D881699068C
:1026A000AA06BB06C0F41CC00E946A108B019C01E4
:1026B000623071058105910508F493C08A8D9B8D68
:1026C000AC8DBD8D081719072A073B0708F48DC08C
:1026D0005301420105C081E0882E912CA12CB12C20
:1026E000750164010894C11CD11CE11CF11C8A8D88
:1026F0009B8DAC8DBD8DC816D906EA06FB0660F031
:1027000022E082169104A104B10408F463C002E03F
:10271000C02ED12CE12CF12CCE01B701A6010E94D4
:102720006A108B019C016115710581059105A9F065
:102730000F3F8FEF18078FEF28078FEF380709F447
:1027400054C0013011052105310509F44EC0C814EB
:10275000D904EA04FB0431F63DC08C2CBD2CAE2C10
:102760009F2CCE01A601B7010FEF1FEF2FEF3FE027
:102770000E942F12882341F5411451046104710411
:1027800049F0CE01B301A201860197010E942F12E8
:102790008823D1F48A86BB86AC869D868E859F85EC
:1027A000A889B9898F3F2FEF92072FEFA2072FEF4C
:1027B000B207A1F00197A109B1098E879F87A88B65
:1027C000B98B81E08D830AC0813059F40FEF1FEF80
:1027D00098010BC000E010E0980107C09701860146
:1027E00004C001E010E020E030E0B801C901DF9151
:1027F000CF911F910F91FF90EF90DF90CF90BF90FE
:10280000AF909F908F907F906F905F904F900895C2
:102810008F929F92AF92BF92CF92DF92EF92FF92F0
:102820000F931F93CF93DF938C01EB01DC01149680
:10283000AD90BC9015970894A11CB11CA114B104D3
:1028400009F401C11E968D919D910D90BC91A02D12
:102850000097A105B10509F4F6C02FE0822E912C56
:102860008A209B208114910409F0D7C00196A11DF4
:10287000B11DF80186879787A08BB18B4285538560
:10288000648575850190F081E02D41155105610544
:10289000710539F480859185A816B90608F0D3C072
:1028A000BCC0828190E001979501A4E03695279500
:1028B000AA95E1F782239323009709F0AEC0CF01D8
:1028C0000E946A106B017C016230710581059105DF
:1028D00008F4BDC08FEFC8168FEFD8068FEFE8065B
:1028E0008FEFF80609F4B5C0D801ED91FC91828D07
:1028F000938DA48DB58DC816D906EA06FB0608F49B
:102900007AC0209709F49FC0D8011A964D915D9125
:102910006D917C911D97CF010E9429136B017C0161
:10292000611571058105910509F48FC0613071054C
:102930008105910509F48BC06F3FEFEF7E07EFEF44
:102940008E07EFEF9E0709F484C0D8018D919C910A
:1029500040E050E0BA010E94190A882309F079C0CA
:10296000F80180819181FC01F2968E5C9D4F01C03F
:102970001192E817F907E1F7D801CD91DC91CE016A
:10298000B701A6010E943610DC01CB018EA79FA7DC
:10299000A8ABB9ABC0E0D1E01BC0D483F801808103
:1029A000918140E050E0BA010E94190A882309F0A1
:1029B00050C0D801ED91FC9186A597A5A0A9B1A919
:1029C0000196A11DB11D86A797A7A0ABB1ABCF5FA4
:1029D000D801ED91FC9111978281C817F0F286A57C
:1029E00097A5A0A9B1A98C1B9109A109B10986A736
:1029F00097A7A0ABB1ABF801C286D386E486F58673
:102A000080819181B701A6010E943610DC01CB01C3
:102A1000F80186879787A08BB18BD8011596BC9259
:102A2000AE9214978D919C911197C29625E0880CD7
:102A3000991C2A95E1F7880D991D53969C938E93C6
:102A4000529780E007C084E005C087E003C082E0C1
:102A500001C081E0DF91CF911F910F91FF90EF9026
:102A6000DF90CF90BF90AF909F908F9008952F925E
:102A70003F924F925F926F927F928F929F92AF920E
:102A8000BF92CF92DF92EF92FF920F931F93CF935B
:102A9000DF9300D000D00F92CDB7DEB78C012B01B1
:102AA000DB018C918F3211F08C3549F40894411C74
:102AB000511CF80116821782108611860CC0D801AD
:102AC000ED91FC9186899789A08DB18DF80186835F
:102AD0009783A087B187D2018C91803248F4C801D6
:102AE00060E070E00E947B11F801138A128A84C1B1
:102AF000F0E23F2EA5E02A2E92012901D9018C9106
:102B00002F5F3F4F8F32C9F38C35B9F3F8016488DA
:102B10007588C3010B96F30101C03192E817F907DC
:102B2000E1F7D2018C918E3259F5F3018083119631
:102B30002C9111972E3241F4218312962C9183E02F
:102B400090E0A0E0B0E004C082E090E0A0E0B0E05F
:102B50002F3229F02C3519F0213208F04AC1480EE5
:102B6000591E213210F484E201C080E2D3011B9689
:102B70008C931B9759C149815A816B817C810CC010
:102B8000CC24DD24760140E050E0BA01E8E08E2E4E
:102B9000912CA12CB12C20E0F201E40FF51F308123
:102BA000DB01CA010196A11DB11D89839A83AB8304
:102BB000BC83313208F489C03F3209F488C03C3507
:102BC00009F485C03E3229F0C814D904EA04FB0494
:102BD000B8F098E089169104A104B10409F009C184
:102BE0003E3209F006C1220F220F38E0C32ED12C4D
:102BF000E12CF12C4BE0842E912CA12CB12CBBCFDD
:102C000037FD2360832F81588F3118F08F558D3118
:102C1000D0F5E981FA81E40DF51DA081AD838A2FFD
:102C200080548F3320F080548D3708F0E2C0D501F6
:102C3000C4010197A109B109C816D906EA06FB0625
:102C400008F0D7C0DB01CA010296A11DB11D89831E
:102C50009A83AB83BC83F301EC0DFD1D3083B70178
:102C6000A6014F5F5F4F6F4F7F4F460D571DED81A0
:102C7000DA01EC9382E090E0A0E0B0E0C80ED91E4B
:102C8000EA1EFB1E78CF432F50E0EBE8F1E0819184
:102C9000882329F090E084179507C9F7AAC0832FED
:102CA00081548A3110F4226006C0832F81568A3104
:102CB00010F421603052F301EC0DFD1D30830894B7
:102CC000C11CD11CE11CF11C56CF44E001C040E006
:102CD000C114D104E104F10409F48BC0D3018C9137
:102CE000853E09F42C92B8E08B169104A104B1043E
:102CF00011F4220F220F822F90E09C01237030707C
:102D00002130310509F440618C7090708430910558
:102D100009F44860E981FA814E0E5F1ED3011B96CB
:102D20004C931B9781C0F80146855785608971894E
:102D3000808191810E94190A882311F5D801529649
:102D4000ED91FC91539790819923C9F0938593FD60
:102D500010C054966D917C9155979F01255F3F4F10
:102D6000E217F30769F04191DB019D91BD0149171D
:102D7000B9F3C80160E070E00E9408145AC084E012
:102D8000D8015496ED91FC91559743858823C9F05D
:102D9000843091F550E09A012470307045FF0DC0E9
:102DA000F8011682178210861186138A128A21155D
:102DB000310509F4A1CE80E01FC021153105D9F0FD
:102DC0001BC042FD19C0D80152966D917C9153975A
:102DD000FB01838584FF0FC0ED91FC9180810E94EF
:102DE000190BDC01CB01F80186839783A087B1879B
:102DF00083CE86E001C085E00F900F900F900F907A
:102E00000F90DF91CF911F910F91FF90EF90DF9086
:102E1000CF90BF90AF909F908F907F906F905F907A
:102E20004F903F902F900895C80160E070E00E949D
:102E30007B11882309F477CFA3CF0F931F93CF93F0
:102E40008C0160E070E00E947B11C82F8823D9F5C7
:102E5000D8011E964D915D916D917C9151978D9108
:102E60009C910E94190AC82F882369F5D8015296AF
:102E7000ED91FC9153978081853E51F1882341F17A
:102E8000C80161E070E00E940814DFCFF8012289D8
:102E90003389C9018096F90101C01192E817F90739
:102EA000E1F7D80154966D917C915597C9012BE0BB
:102EB00030E040E050E00E947E09D801ED91FC91A5
:102EC000119781E084838C2FCF911F910F910895EA
:102ED000F8014685578560897189808191810E94BA
:102EE000190AC82F882391F2EECFCF93DF93EC011C
:102EF00094E018C0888199810E94190A882339F5C5
:102F0000EA89FB899081992309F1953E19F093850F
:102F100093FF19C0CE0160E070E00E940814982F62
:102F20008823A9F44E855F85688979894115510503
:102F300061057105F9F6892F992329F01E861F86F0
:102F4000188A198A892FDF91CF91089584E0982FEC
:102F5000F5CF7F928F929F92AF92BF92CF92DF92E6
:102F6000EF92FF920F931F93CF93DF93EC016A01CF
:102F70007B01423051056105710508F457C08A8D07
:102F80009B8DAC8DBD8D481759076A077B0708F0EC
:102F90004DC03CC0CE01B701A6010E946A104B0192
:102FA0005C016115710581059105E1F181E08816EB
:102FB0009104A104B104D1F12FEF82162FEF9206F4
:102FC0002FEFA2062FEFB20679F1CE01B701A601CD
:102FD00000E010E098010E942F12882341F58E85B1
:102FE0009F85A889B9898F3F2FEF92072FEFA207FE
:102FF0002FEFB20741F00196A11DB11D8E879F876B
:10300000A88BB98B7D827501640102C0772473940B
:103010008A8D9B8DAC8DBD8DC816D906EA06FB0640
:1030200008F4B8CF80E003C081E001C082E0DF9106
:10303000CF911F910F91FF90EF90DF90CF90BF90B5
:10304000AF909F908F907F900895882391F4E091A6
:103050007F02F0918002309709F0108261157105AE
:1030600011F0FB0110827093800260937F0280E078
:1030700008958BE008954F925F926F927F928F92A6
:103080009F92AF92BF92CF92DF92EF92FF920F93F7
:103090001F93CF93DF93CDB7DEB7A4970FB6F89405
:1030A000DEBF0FBECDBF6C017CA36BA3009709F4FC
:1030B000ECC0FC01118210825FE1F52EF4224E710A
:1030C000CE018396BE01635F7F4F0E94F50BE82E11
:1030D000882309F0DCC0CE0101969AA389A36BA1D5
:1030E0007CA1CE010D960E9437150F8D18A1882363
:1030F00021F40115110509F486E04F2D50E09A01E5
:103100002C7130702115310509F459C0882371F0F4
:10311000843021F4CE010D960E941D170F8D18A149
:10312000882309F0B0C0F8E0FF2A07C0F8018385C2
:10313000817109F0C8C0F2FCC2C0F3FE4BC0F801B7
:1031400016861786108A118A1386148E158E168E8F
:10315000178EED85FE858081B8010E94190B4B0109
:103160005C01C80140E050E0BA010E9490098D85E1
:103170009E8521E0FC01248381149104A104B10403
:1031800049F146A457A460A871A8B501A4010E9402
:10319000A917882309F077C0ED85FE85D501C40104
:1031A0000197A109B10982879387A487B587CF01C9
:1031B000B301A2010E94190A882361F064C0882328
:1031C00009F061C0F801838584FD7BC0F1FE02C077
:1031D00080FD79C0F3FE02C0F0E2FF2A8D849E8458
:1031E000F40186A597A5A0A9B1A9F601828F938FB6
:1031F000A48FB58F178F068FF482F4018081B801F8
:103200000E94190BDC01CB01F60186879787A08B02
:10321000B18BF801478D50E060E070E0742F6627B5
:1032200055274427868D90E0A0E0B0E0DC01992787
:103230008827482B592B6A2B7B2B848D90E0A0E0AC
:10324000B0E0482B592B6A2B7B2B958D80E0A0E0BA
:10325000B0E0482B592B6A2B7B2BF6014287538712
:10326000648775871682178210861186168A178AD8
:10327000108E118E91828082F40186819781F601F1
:103280009383828304C0E82E02C0B9E0EB2E8E2D1A
:10329000A4960FB6F894DEBF0FBECDBFDF91CF91DD
:1032A0001F910F91FF90EF90DF90CF90BF90AF9064
:1032B0009F908F907F906F905F904F90089588E0DF
:1032C000E2CF84E0E0CF87E0DECF2F923F924F92B3
:1032D0005F926F927F928F929F92AF92BF92CF92A6
:1032E000DF92EF92FF920F931F93CF93DF93CDB7AF
:1032F000DEB72A970FB6F894DEBF0FBECDBF3C01F4
:10330000F62E472EB42EC52E1E830D83D8011D9296
:103310001D921D921C9213972F8338870E943A0B9F
:10332000A82E2F813885882309F0ADC1F30184814F
:1033300087FD9CC080FFA5C182859385A485B58546
:103340004681578160857185841B950BA60BB70B51
:1033500029833A83BB82CC8209811A812B813C81EB
:1033600080179107A207B30720F489839A83AB8360
:10337000BC838F2C942C10E2212E312C260C371C70
:10338000AA86530172C1D50116960D911D912D91FA
:103390003C911997D901C8019170A070B070009745
:1033A000A105B10509F010C1F50180819181B90134
:1033B000A801B9E07695679557954795BA95D1F7E5
:1033C000DC011296BC91B150B423B987BB23B9F587
:1033D000011511052105310529F486859785A089F8
:1033E000B18909C0F50142895389648975890E94B0
:1033F0006A10DC01CB0182309105A105B10548F4CA
:10340000D50114968C911497806814968C93149718
:103410002DC08F3FEFEF9E07EFEFAE07EFEFBE0738
:1034200049F4D50114968C911497806814968C9366
:103430001497C0C0F501828B938BA48BB58BD501FB
:103440000D911C91119752964D915D916D917C91CA
:103450005597C8010E943610DC01CB010097A105E9
:10346000B10539F4F501848180688483A2E0AA2E35
:103470000AC12985422F50E060E070E02C013D0137
:10348000440E551E661E771EC980DA80EB80FC80D4
:10349000F9E0F694E794D794C794FA95D1F7C1145C
:1034A000D104E104F10409F450C0D80112962C9122
:1034B000D701C601840F951FA61FB71F422F50E0EA
:1034C00060E070E0481759076A077B0750F4822FC5
:1034D00090E02985821B91096C01EE24D7FCE094D1
:1034E000FE2CD80111968C91B401A30192010C2DF0
:1034F0000E940207F5019481882319F09068948353
:1035000059C096FF1AC0F50186899789A08DB18DA3
:1035100084199509A609B7098C159D05AE05BF0547
:1035200060F4982F8827990F880D991DB10120E02C
:1035300032E040E050E00E947E0979E0CC0CDD1CD6
:10354000EE1CFF1C7A95D1F767C0D50156962D91D8
:103550003D914D915C9159972415350546055705C8
:1035600061F114968C91149786FF14C0F801818143
:10357000B10101E00E945607D50114969C91149761
:10358000882321F09068F501948314C09F7BD501B6
:1035900014969C93D501ED91FC918181B101A30119
:1035A000920101E00E940207882339F0F50184812D
:1035B00080688483AA24A39466C0D50156964D9250
:1035C0005D926D927C925997F50146815781608595
:1035D0007185DB01CA019170A070B07000E012E04B
:1035E00020E030E0081B190B2A0B3B0BC980DA8066
:1035F000EB80FC800C151D052E053F0510F46801BD
:103600007901BA017170605E7F4F6A0D7B1DC40144
:10361000A70196010E947E098C0C9D1CF5018681F4
:103620009781A085B1858C0D9D1DAE1DBF1D868324
:103630009783A087B187ED81FE8180819181A281EE
:10364000B3818C0D9D1DAE1DBF1D80839183A28310
:10365000B38309811A812B813C810C191D092E0924
:103660003F0909831A832B833C8329813A814B814B
:103670005C81211531054105510509F084CEAA84EC
:1036800002C067E0A62E8A2D2A960FB6F894DEBFF8
:103690000FBECDBFDF91CF911F910F91FF90EF90A3
:1036A000DF90CF90BF90AF909F908F907F906F9062
:1036B0005F904F903F902F9008952F923F924F929E
:1036C0005F926F927F928F929F92AF92BF92CF92B2
:1036D000DF92EF92FF920F931F93CF93DF93CDB7BB
:1036E000DEB729970FB6F894DEBF0FBECDBF7C01C1
:1036F000862EC72E19012A011C830B83D8011D9227
:103700001D921D921C9213970E943A0B782E8823CB
:1037100009F006C2F701848187FDD3C081FFFEC195
:1037200082859385A485B585B201A101480F591FF3
:103730006A1F7B1F481759076A077B0718F4222462
:10374000332421018982CA828701005E1F4F1E83B4
:103750000D837F82F986E88632012101BBC1A885ED
:10376000B98516964D915D916D917C911997DB010C
:10377000CA019170A070B0700097A105B10509F061
:1037800052C1E885F98520813181DB01CA0119E048
:10379000B695A795979587951A95D1F7F901128156
:1037A0001150182309F051C04115510561057105EB
:1037B000C9F4E885F98586859785A089B189009740
:1037C000A105B10509F5C90140E050E0BA010E9428
:1037D0002913DC01CB01E885F98586879787A08BC3
:1037E000B18B0DC0A885B98552964D915D916D91B3
:1037F0007C915597C9010E942913DC01CB010097E8
:10380000A105B10509F46CC1E885F98524818130F1
:103810009105A105B10519F42068248352C08F3F9A
:10382000EFEF9E07EFEFAE07EFEFBE0741F4E8843E
:10383000F9842068D70114962C931497E9C0E88581
:10384000F985828B938BA48BB58BA885B98514964B
:103850008C91149786FF1BC0ED91FC9111975696A1
:103860002D913D914D915C91599781816D817E8122
:1038700001E00E945607E885F9859481882319F0B4
:1038800090689483C5C09F7BE885F9859483A8855B
:10389000B9852D903C90119752964D915D916D9107
:1038A0007C915597C1010E943610DC01CB01009735
:1038B000A105B10549F4E884F984F70184818068A1
:1038C000848342E0742E2CC1412F50E060E070E010
:1038D0004C015D01840E951EA61EB71E7301620188
:1038E00039E0F694E794D794C7943A95D1F7C11488
:1038F000D104E104F10409F461C0D10112962C91C4
:10390000D701C601840F951FA61FB71F422F50E095
:1039100060E070E0481759076A077B0748F4822F78
:1039200090E0811B91096C01EE24D7FCE094FE2C01
:10393000F101818169817A81A50194010C2D0E9498
:103940005607882359F0E884F984D70114968C919E
:103950001497806814968C9314975AC0E885F9855B
:1039600086899789A08DB18D88199909AA09BB0903
:103970008C159D05AE05BF05C8F4BC01762F6627E2
:10398000770F09811A81600F711F8D819E8120E060
:1039900032E040E050E00E947E09A885B985149687
:1039A0008C9114978F7B14968C93149789E0CC0C90
:1039B000DD1CEE1CFF1C8A95D1F766C0E885F985F1
:1039C00086899789A08DB18D88159905AA05BB05B3
:1039D00011F186819781A085B185428553856485E3
:1039E000758584179507A607B707A8F4D101119626
:1039F0008C916D817E81A501940101E00E940207F6
:103A0000882349F0E884F984F701848180688483FD
:103A10007724739485C0A885B98556968D929D921A
:103A2000AD92BC925997E885F985468157816085AA
:103A30007185DB01CA019170A070B07000E012E0E6
:103A400020E030E0081B190B2A0B3B0B73016201CD
:103A5000041515052605370510F468017901CA011A
:103A60009170809628853985820F931F69817A81AC
:103A7000A70196010E947E09A885B98514968C91AC
:103A80001497806414968C93E981FA81EC0DFD1DE6
:103A9000FA83E983E885F98586819781A085B185D8
:103AA0008C0D9D1DAE1DBF1D86839783A087B1879A
:103AB000EB81FC8180819181A281B3818C0D9D1D60
:103AC000AE1DBF1D80839183A283B3834C185D0814
:103AD0006E087F08411451046104710409F03FCE5F
:103AE0007F80E884F984F70186819781A085B1857C
:103AF0004285538564857585481759076A077B0792
:103B000020F482879387A487B587D70114968C9178
:103B10001497806214968C93149702C007E0702E5D
:103B2000872D29960FB6F894DEBF0FBECDBFDF916B
:103B3000CF911F910F91FF90EF90DF90CF90BF90AA
:103B4000AF909F908F907F906F905F904F903F903D
:103B50002F9008950F931F93CF93DF93EC010E9452
:103B60003A0B882309F04AC09C8195FF47C096FF15
:103B700012C0E881F981BE01605E7F4F2E893F89C6
:103B8000488D598D818101E00E9456078823A9F54F
:103B90008C818F7B8C834A8D5B8D6C8D7D8D888134
:103BA00099810E94190A882349F50E8D1F8DF8010D
:103BB0008385806283878A85848F8B85858F8C85BA
:103BC000868F8D85878F4E855F8568897989C80145
:103BD0000E949009F801168A178A108E118E128A97
:103BE000138A8C818F7D8C83E881F98181E08483C5
:103BF000888199810E94920A01C081E0DF91CF9172
:103C00001F910F910895CF93DF93EC010E94AA1D9D
:103C1000882311F419821882DF91CF9108958823A7
:103C200019F41092810208958BE008950F931F9369
:103C3000CF93DF93CDB7DEB7A5970FB6F894DEBF6D
:103C40000FBECDBF9CA38BA3CE018396BE01635F45
:103C50007F4F40E00E94F50B282F8823A1F5CE016D
:103C600001969AA389A36BA17CA1CE010D960E9417
:103C70003715282F882321F56F8D78A161157105DF
:103C800059F4ED85FE858B899C89AD89BE89868B2B
:103C9000978BA08FB18F17C0FB01838584FF12C063
:103CA0000D851E85F80180812DA30E94190BDC0172
:103CB000CB01F801868B978BA08FB18F2DA103C00C
:103CC000843009F425E0822FA5960FB6F894DEBF64
:103CD0000FBECDBFDF91CF911F910F9108952F920D
:103CE0003F924F925F926F927F928F929F92AF928C
:103CF000BF92CF92DF92EF92FF920F931F93CF93D9
:103D0000DF9300D000D000D0CDB7DEB79E838D8387
:103D10006A017B010E943A0B182F882309F0C1C168
:103D2000AD81BE8114962C91149727FDB9C11A96C6
:103D30008D919D910D90BC91A02D8C159D05AE058A
:103D4000BF0520F421FD02C06C017D01ED81FE81E3
:103D500086819781A085B18516821782108611868B
:103D6000C114D104E104F10409F42CC12080318094
:103D7000F10182809924AA24BB2429E0880C991C93
:103D8000AA1CBB1C2A95D1F70097A105B105F1F13A
:103D90002C013D0108944108510861087108C701D0
:103DA000B6016150704080409040A50194010E948E
:103DB0007B3729833A834B835C83C301B201A5011E
:103DC00094010E947B3789819A81AB81BC818217E3
:103DD0009307A407B507D0F088279927DC01881935
:103DE0009909AA09BB0984219521A621B721ED8152
:103DF000FE8186839783A087B187C81AD90AEA0A09
:103E0000FB0A428953896489758936C0AD81BE81B8
:103E10001E964D915D916D917C9151974115510583
:103E20006105710509F5C10140E050E0BA010E9449
:103E30002913AB01BC01413051056105710519F42D
:103E4000ED81FE815DC04F3FFFEF5F07FFEF6F0722
:103E5000FFEF7F0719F4AD81BE8136C0ED81FE8191
:103E600046875787608B718BAD81BE8152964D938B
:103E70005D936D937C9355974115510561057105CF
:103E800009F4A0C04D805E8059C0F2012481808178
:103E9000918121FF0AC00E942913AB01BC01411589
:103EA00051056105710529F452C00E946A10AB01E9
:103EB000BC014F3FFFEF5F07FFEF6F07FFEF7F078B
:103EC00059F45E824D82D20114968C9114978068C9
:103ED00014968C931497C3C0423051056105710547
:103EE00060F0D201ED91FC91828D938DA48DB58D02
:103EF000481759076A077B0738F05E824D82F20146
:103F0000848180688483CCC0D20152964D935D93A6
:103F10006D937C93559716968D919D910D90BC91C4
:103F2000A02D880D991DAA1DBB1DF20186839783C4
:103F3000A087B187C818D908EA08FB088C149D042B
:103F4000AE04BF0408F4A1CF5E824D8204C05E823D
:103F50004D8275016401ED81FE8186819781A08586
:103F6000B1858C0D9D1DAE1DBF1D86839783A087D7
:103F7000B187D701C6019170A070B0700097A105FC
:103F8000B10501F1808191810E943610DC01CB01E5
:103F90000097A105B10551F4AD81BE8114968C91B5
:103FA0001497806814968C9314977AC009E0F6945D
:103FB000E794D794C7940A95D1F7C80ED91EEA1E84
:103FC000FB1E03C0CC24DD247601ED81FE818681B9
:103FD0009781A085B1859170A070B0700097A10500
:103FE000B10509F446C026893789408D518DC21626
:103FF000D306E406F506E9F1848186FF1BC0019033
:10400000F081E02D6D817E81605E7F4F818101E0D6
:104010000E945607AD81BE8114969C911497882307
:1040200029F0906814969C93149719C09F7BED819A
:10403000FE819483AD81BE81ED91FC911197BD010C
:10404000605E7F4F8181A701960101E00E94020717
:10405000882339F0ED81FE8184818068848311E0BA
:1040600020C0AD81BE815696CD92DD92ED92FC923C
:104070005997ED81FE8186819781A085B185428522
:10408000538564857585481759076A077B0748F487
:1040900082879387A487B58784818062848301C0E7
:1040A00012E0812F26960FB6F894DEBF0FBECDBF6B
:1040B000DF91CF911F910F91FF90EF90DF90CF9004
:1040C000BF90AF909F908F907F906F905F904F9038
:1040D0003F902F900895EF92FF920F931F93CF93ED
:1040E000DF93CDB7DEB72E970FB6F894DEBF0FBEC5
:1040F000CDBF8C017E876D87009709F440C0CE014B
:104100000D96B80140E00E94F50BF801E080F180C7
:10411000882389F5CE010196958B848B6D857E85EC
:10412000C8010E943715882301F5F8016289738957
:104130006115710579F0FB01838584FF1BC0F701D0
:1041400080810E94190BDC01CB01F80186839783E3
:10415000A087B187F70186819781F80193838283D5
:10416000C80160E070E00E947B11843019F0882360
:1041700039F001C085E0F8011182108201C089E0A8
:104180002E960FB6F894DEBF0FBECDBFDF91CF9154
:104190001F910F91FF90EF900895CF92DF92FF92C1
:1041A0000F931F93CF93DF93CDB7DEB72C970FB646
:1041B000F894DEBF0FBECDBF8C016B010E943A0B9D
:1041C000F82E882371F5C114D10431F4C80160E0E0
:1041D00070E00E947B1124C09E012F5F3F4FF801C9
:1041E000358B248BC8010E947517843031F4F80197
:1041F00016861786108A118A02C0882389F4C8019E
:10420000B6010E949909C80160E070E00E9408149C
:10421000843031F4F80116861786108A118A01C09D
:10422000F82E8F2D2C960FB6F894DEBF0FBECDBFA3
:10423000DF91CF911F910F91FF90DF90CF90089564
:10424000FF920F931F93CF93DF93CDB7DEB7A49761
:104250000FB6F894DEBF0FBECDBF9CA38BA38B011E
:10426000CE018396BE01635F7F4F40E00E94F50B55
:10427000F82E8823D1F4CE0101969AA389A36BA1CD
:104280007CA1CE010D960E943715F82E882369F483
:104290002F8D38A12115310531F0CE010D96B801D1
:1042A0000E94990902C036E0F32E8F2DA4960FB616
:1042B000F894DEBF0FBECDBFDF91CF911F910F915C
:1042C000FF9008952F923F924F925F926F927F924C
:1042D0008F929F92AF92BF92CF92DF92EF92FF9216
:1042E0000F931F93CF93DF93CDB7DEB72E970FB603
:1042F000F894DEBF0FBECDBF9A8389831B018A016C
:10430000CE010196BA0140E00E94F50B582ED8016B
:104310006D907C901197882309F005C1F301868583
:104320009785A089B189C28CD38CE48CF58CB701B8
:10433000A6014250504060407040481759076A0734
:104340007B0730F0F10180839183A283B383EBC0BC
:104350004080B1E04B16B9F582E0C82ED12CE12C9B
:10436000F12C882499245401C301B701A6010E94AD
:104370006A10DC01CB018F3FEFEF9E07EFEFAE0736
:10438000EFEFBE0709F4B4C081309105A105B10576
:1043900009F4B1C00097A105B10529F40894811C66
:1043A000911CA11CB11C0894C11CD11CE11CF11C66
:1043B000F301828D938DA48DB58DC816D906EA06BA
:1043C000FB0690F29DC082A193A1A4A1B5A18B830D
:1043D0009C83AD83BE83E0E0F0E000E010E0980154
:1043E000882499245401A3014E5C5F4F5C874B875E
:1043F0005D864E860115110521053105D9F4C301ED
:104400004B815C816D817E810E94190A882309F0AD
:1044100075C08B819C81AD81BE810196A11DB11DAE
:104420008B839C83AD83BE83EB85FC8500E012E02B
:1044300020E030E09E859230B1F4A181A8871F82F0
:10444000808190E04F80588484299529009729F431
:104450000894811C911CA11CB11C32960250104082
:104460002040304037C0838190E0A0E0B0E0782F5A
:10447000662755274427828190E0A0E0B0E0DC0168
:1044800099278827482B592B6A2B7B2B808190E01A
:10449000A0E0B0E0482B592B6A2B7B2B51805A8629
:1044A000198649845A84C201A0E0B0E0482B592BF8
:1044B0006A2B7B2B7F70411551056105710529F42D
:1044C0000894811C911CA11CB11C3496045010400E
:1044D000204030400894C108D108E108F108C11417
:1044E000D104E104F10409F085CF5D844E8408C055
:1044F0005524539405C042E0542E02C04E84582ED9
:10450000D3011E968D929D92AD92BC925197B3E0CD
:104510004B1619F481E0F3018583D1018D929D92B0
:10452000AD92BC921397852D2E960FB6F894DEBFF0
:104530000FBECDBFDF91CF911F910F91FF90EF90F4
:10454000DF90CF90BF90AF909F908F907F906F90B3
:104550005F904F903F902F9008958F929F92AF92CF
:10456000BF92EF92FF920F931F93CF937C0100971E
:1045700009F462C00E943A0BC82F882309F05DC07D
:10458000F701248127FD04C021FD62C0C7E055C0AA
:10459000C2E053C0F70182879387A487B587206262
:1045A0002483208131810097A105B10571F44685EE
:1045B000578560897189C9010E94A917C82FF70121
:1045C00016861786108A118A30C0F70142895389EE
:1045D00064897589C9010E946A104B015C016F3FB3
:1045E000FFEF7F07FFEF8F07FFEF9F0709F440C042
:1045F00081E088169104A104B104F1F53BC0F701F4
:1046000042895389648975890FEF1FEF2FEF3FE0CF
:104610000E942F12C82F882351F4F70180819181C5
:10462000B501A4010E94A917C82FCC2331F0F701CE
:1046300084818068848301C0C9E08C2FCF911F9151
:104640000F91FF90EF90BF90AF909F908F90089543
:10465000F70186819781A085B18542855385648560
:10466000758584179507A607B70708F493CFE5CF9C
:10467000C1E0DDCFC2E0DBCFF70180819181FC0199
:10468000428D538D648D758D84169506A606B706EA
:10469000A0F6B5CFAF92BF92CF92DF92EF92FF928A
:1046A0001F93CF93DF93CDB7DEB7EA970FB6F89499
:1046B000DEBF0FBECDBF9AAF89AFCE01C996BE0196
:1046C0006D5D7F4F41E00E94F50B182F882309F0A4
:1046D00089C0CE01019698AF8FAB69AD7AADCE019E
:1046E00083960E943715182F882309F07BC0EFA905
:1046F000F8AD838585FF87C016E074C0F50183851A
:1047000080FF03C017E001C016E0EBA1FCA180818F
:10471000B5010E94190B6B017C01112309F062C0E5
:10472000F501838584FF76C0F2E0CF16D104E10461
:10473000F10478F1CE010D96BE016D5D7F4F26E14B
:1047400030E040E050E00E947E09CB8ADC8AED8AAE
:10475000FE8ACE010D9662E070E00E947B11182F58
:10476000882309F03FC0CE010D960E947517182FBF
:10477000882389F0EBA1FCA186899789A08DB18D52
:10478000C816D906EA06FB0631F0143009F442C017
:1047900029C012E027C017E025C049A95AA96BA972
:1047A0007CA98BA19CA10E94190A182F8823D1F4FF
:1047B000EDA9FEA985EE80838BA19CA121E0FC01DF
:1047C0002483C114D104E104F10439F0B701A60136
:1047D0000E94A917182F882329F48BA19CA10E945D
:1047E000920A182F812FEA960FB6F894DEBF0FBEFB
:1047F000CDBFDF91CF911F91FF90EF90DF90CF90D1
:10480000BF90AF900895ADA8BEA8A114B10409F05F
:1048100075CF7ACF6FA178A5CE0183960E947B11C8
:10482000182F8823F9F6B9CF2F923F924F925F92BB
:104830006F927F928F929F92BF92CF92DF92EF9270
:10484000FF920F931F93CF93DF93CDB7DEB7A69759
:104850000FB6F894DEBF0FBECDBF9CA38BA3CE01D5
:104860008396BE01635F7F4F41E00E94F50B182FD6
:10487000882309F0DBC0CE0101969AA389A36BA11E
:104880007CA1CE010D960E943715182F882351F078
:10489000843009F0CBC0E9A1FAA1838585FFDFC090
:1048A00016E0C4C018E0C2C081E0C816D104E1041B
:1048B000F10409F4E5C09FEFC9169FEFD9069FEFF9
:1048C000E9069FEFF90609F4DDC0DEC00D851E85FF
:1048D000C801B701A6010E9436102B013C0132E34A
:1048E000832E912C800E911EF801EE5CFD4FFEA3ED
:1048F000EDA3F40101C011928DA19EA1E817F90763
:10490000D1F7C4010B96F40120E201C02193E8170E
:10491000F907E1F79EE2B92EF801B2AA80E185AF6E
:10492000E85BFF4F1082F801E75BFF4F1082F80150
:10493000E65BFF4F1082F801E55BFF4F1082C40178
:10494000B701A6010E94900922E5222E312C200EEB
:10495000311EC101B40120E230E040E050E00E948D
:104960007E09F801ED5AFF4FB0824B895C896D8951
:104970007E89ED85FE858081833061F486A197A1D3
:10498000A0A5B1A5481759076A077B0719F440E0AD
:1049900050E0BA01C1010E949009ED85FE850281B7
:1049A000BB24B3941EC08D859E85FC0146A657A6E8
:1049B00060AA71AAB48240E050E0BA010E94190ACC
:1049C000182F8823B9F4F40101C011928DA19EA182
:1049D000E817F907D1F70894411C511C611C711CA0
:1049E0000150002301F7CE010D960E941D17182FCC
:1049F000882339F08D859E85B701A6010E94A917ED
:104A000015C0EF8DF8A180E18387168A178A108E72
:104A1000118ECF01B701A6010E9490098D859E8558
:104A200021E0FC0124830E94920A182F812FA69670
:104A30000FB6F894DEBF0FBECDBFDF91CF911F91AF
:104A40000F91FF90EF90DF90CF90BF909F908F904D
:104A50007F906F905F904F903F902F9008958D853D
:104A60009E8540E050E0BA010E9429136B017C0151
:104A7000611571058105910509F016CF17E0BACFD0
:104A800012E0B8CF11E0B6CF8D859E8540E050E0B2
:104A9000BA010E94190A182F882309F417CFAACF48
:104AA0000F931F93CF93DF93CDB7DEB7A4970FB6C5
:104AB000F894DEBF0FBECDBF9CA38BA3162F042F8F
:104AC000CE018396BE01635F7F4F41E00E94F50BEC
:104AD000882319F5CE0101969AA389A36BA17CA125
:104AE000CE010D960E9437158823B9F4E9A1FAA1E9
:104AF000838585FF1DC010C00772802F8095938528
:104B000089230123802B83878D859E8521E0FC01ED
:104B100024830E94920A01C086E0A4960FB6F894FE
:104B2000DEBF0FBECDBFDF91CF911F910F910895D2
:104B3000EF8DF8A1309701F7EFCF0F931F93CF932D
:104B4000DF93CDB7DEB7A4970FB6F894DEBF0FBEE4
:104B5000CDBF9CA38BA38B01CE018396BE01635F67
:104B60007F4F41E00E94F50B882359F5CE01019655
:104B70009AA389A36BA17CA1CE010D960E94371543
:104B80008823F9F4E9A1FAA1838585FF25C018C01F
:104B9000D80116968C911697868B17968C9117973D
:104BA000878B14968C911497808F15968C91818F9A
:104BB0008D859E8521E0FC0124830E94920A01C01C
:104BC00086E0A4960FB6F894DEBF0FBECDBFDF918E
:104BD000CF911F910F910895EF8DF8A13097C1F6F5
:104BE000EFCFEF92FF920F931F93CF93DF93CDB749
:104BF000DEB7CF54D0400FB6F894DEBF0FBECDBFA6
:104C000060969FAF8EAF60978B01CE01825B9F4F06
:104C1000BE01685C7F4F41E00E94F50B882309F0DC
:104C2000D0C088AD99AD9BA38AA3CE0101962E96E4
:104C30009FAF8EAF2E9760966EAD7FAD6097CE0121
:104C4000C8960E943715882309F0BBC02E96EEAD9A
:104C5000FFAD2E97838585FFC2C086E0B2C0655F39
:104C60007F4FCE010D9625E130E040E050E00E94FC
:104C70007E09CE018296BE01685C7F4F26E130E05E
:104C800040E050E00E947E09CE018296B8010E9469
:104C90003715882309F492C0843009F092C0CE0100
:104CA00082960E941D17882309F08BC0ECA8FDA8EE
:104CB000C7010D96BE01615F7F4F23E130E040E008
:104CC00050E00E947E098D858062F701838708ADE0
:104CD00019AD81E0F801848322964CAD5DAD6EADD7
:104CE0007FAD229788A599A5AAA5BBA54817590706
:104CF0006A077B0709F440C0F701838584FF3CC045
:104D0000F8018081B7010E94190BAB01BC01C801F9
:104D10000E943610AB01BC014115510561057105BA
:104D200009F466C0C8010E94190AE8ADF9AD8823EC
:104D300009F047C0DF01AD5ABF4F8C918E32E1F4CC
:104D4000808148A559A56AA57BA5833061F486A119
:104D500097A1A0A5B1A5481759076A077B0719F4C1
:104D600040E050E0BA01CF018E5A9F4F0E94900957
:104D7000E8ADF9AD81E084836CAD7DADCE01C89620
:104D80000E947B118823E9F42A964CAD5DAD6EAD8F
:104D90007FAD2A9788AD99AD0E94190A882389F4BE
:104DA0002C96EEADFFAD2C9785EE808388AD99AD46
:104DB00021E0FC0124830E94920A03C088E001C024
:104DC00084E0C15BDF4F0FB6F894DEBF0FBECDBFEE
:104DD000DF91CF911F910F91FF90EF9008952C9646
:104DE0006EAD7FAD2C976115710509F038CFE8CF16
:104DF00082E0E7CF90E029EA31E007C0F9012F5FB8
:104E00003F4FE491EE23D1F79F5F981721F0F9010E
:104E10004491442399F700D000D000D0EDB7FEB7FD
:104E2000319645E459E0ADB7BEB712965C934E9308
:104E3000119782831382358324830E94032CEDB75C
:104E4000FEB736960FB6F894FEBF0FBEEDBF0895BD
:104E5000AF92BF92CF92DF92EF92FF920F931F9388
:104E6000CF93DF9300D0CDB7DEB7D22E00D000D0E5
:104E700000D028E339E0ADB7BEB712963C932E932D
:104E80001197EDB7FEB74383548365837683898397
:104E90009A830E94032C8981A82E9A81B92E8DB7FE
:104EA0009EB706960FB6F8949EBF0FBE8DBF8501C4
:104EB000CA2C0F2EFFE3EF2EF9E0FF2EF02D16C0C7
:104EC000D8018D918D0100D000D0EDB7FEB731969D
:104ED000ADB7BEB71296FC92EE9211978283138201
:104EE0000E94032C0F900F900F900F90802F8C1921
:104EF0008D1530F380E208C0F50181915F01982F94
:104F000090529F3508F08EE20E94592B8A2D8C1901
:104F10008D1590F38AE00E94592B0F900F90DF912E
:104F2000CF911F910F91FF90EF90DF90CF90BF90A6
:104F3000AF900895BF92CF92DF92EF92FF920F93BE
:104F40001F93CF93DF93CDB7DEB766970FB6F89474
:104F5000DEBF0FBECDBF0AE119E07E010894E11C5F
:104F6000F11CC701B8010E946B20882309F066C0BC
:104F7000F80101900020E9F78F01015010400A511B
:104F80001940BE2CDF2C8AE1E82E89E0F82EE00ED5
:104F9000F11E9FE2C92E055E164F43C09E3209F4F2
:104FA00040C08091C70484FF17C08091800D90910C
:104FB000810D01969093810D8093800DF701C08241
:104FC000C80168EC74E00E94CA370E949A27F70172
:104FD0001082882331F132C08091820D9091830D2F
:104FE00001969093830D8093820D80911609909184
:104FF0001709A0911809B09119094091BF04509167
:10500000C0046091C1047091C204840F951FA61F53
:10501000B71F8093160990931709A0931809B093AE
:1050200019098B2D9D2D6FEB74E00E94CD208823F4
:1050300029F49091C804992309F0B0CF66960FB671
:10504000F894DEBF0FBECDBFDF91CF911F910F91BE
:10505000FF90EF90DF90CF90BF9008951F920F9236
:105060000FB60F9211242F933F934F935F936F933B
:105070007F938F939F93AF93BF93EF93FF93809111
:10508000840D9091850DA091860DB091870D0196AC
:10509000A11DB11D8093840D9093850DA093860D65
:1050A000B093870D0E946109FF91EF91BF91AF917D
:1050B0009F918F917F916F915F914F913F912F9130
:1050C0000F900FBE0F901F9018951F920F920FB662
:1050D0000F9211248F939F9380911A0D90911B0D25
:1050E0008130910559F45E9A80911A0D90911B0DB3
:1050F000019690931B0D80931A0D0DC080911A0D8F
:1051000090911B0D8230910511F45E9804C01092AD
:105110001B0D10921A0D9F918F910F900FBE0F9043
:105120001F901895CF93DF9300D000D0CDB7DEB796
:1051300092E499838A836B83CE01019663E00E9497
:10514000462A0E943B2A8823E1F7809184028170DD
:105150000F900F900F900F90DF91CF9108950F93C4
:105160001F93CF93DF9300D000D0CDB7DEB78B0174
:1051700092E499838A83CE01019662E00E94462AD6
:1051800083E48983CE01019662E00E94462ACE0123
:10519000019662E00E94742A8A81F80180838091DE
:1051A000840281700F900F900F900F90DF91CF913C
:1051B0001F910F910895CF93DF9310921B0D1092C2
:1051C0001A0D52985A9A81E08DBB82E08093690053
:1051D00082E160E80E949228882329F18FE295E716
:1051E0000197F1F700C000008AE199E06AE070E001
:1051F0004EE451E00E94D137CBE1D9E0FE01319776
:10520000808168810E949228882369F087EB9BE067
:105210000197F1F700C0000022969AE0C936D9073D
:1052200069F781E001C080E0DF91CF9108955B983C
:105230005F985C9A5C985F9A5B9A089580911A0DCA
:1052400090911B0D0097D1F75B9887EB9BE001973E
:10525000F1F700C000005B9A87EB9BE00197F1F744
:1052600000C0000081E090E090931B0D80931A0D28
:1052700008958AB1886F8AB95B985C985D985F9A47
:105280005E9888E28A95F1F75C9A88E28A95F1F750
:105290005C985F9888E28A95F1F75C9A88E28A9533
:1052A000F1F75C985F9A88E28A95F1F75B9A81E062
:1052B000089511B85C9A80B15C98382F20E05C9A10
:1052C00080B15C9890E0822B932B08958F929F92EF
:1052D000AF92BF92CF92DF92EF92FF920F931F9304
:1052E000CF93DF9300D000D0CDB7DEB720911A0D59
:1052F00030911B0D2230310509F0A1C05F985C9AF6
:105300005C985F9AA7EBBBE01197F1F700C0000033
:10531000CC24DD2476014C01AA2497FCA094BA2C5D
:1053200080E098E5A2E0B0E0880E991EAA1EBB1EA0
:1053300053C00E945929F80131971082D8018C93EB
:105340000E5F1F4FBBE00B391B0799F7B501A40196
:105350004C0D5D1D6E1D7F1D85ED94E00E946F1E3E
:1053600085ED94E06AE179E020E832E040E050E049
:105370008E010F5F1F4F0E945D1B8823E1F000D05C
:1053800000D0EDB7FEB7319622E539E0ADB7BEB734
:1053900012963C932E931197828313820E94032CC2
:1053A00010921B0D10921A0D0F900F900F900F90EE
:1053B0000E94172942C080E89DEFAFEFBFEFC80EF3
:1053C000D91EEA1EFB1E90E0C91698EAD9069DEF89
:1053D000E9069FEFF90619F00BE119E0AACF5F98F3
:1053E0005C9A5C985F9A10921B0D10921A0D00D077
:1053F00087E699E0ADB7BEB712969C938E9311974E
:105400000E94032C0F900F9085ED94E00E94031EE4
:1054100000D000D0EDB7FEB7319621E739E0ADB747
:10542000BEB712963C932E931197828313820E94EB
:10543000032C0F900F900F900F9081E001C080E03F
:105440000F900F900F900F90DF91CF911F910F91C0
:10545000FF90EF90DF90CF90BF90AF909F908F9094
:10546000089584E38093B8008FEF8093BB0084E0BD
:105470008093BC0008958091BC0081700895809154
:10548000BC0080FDFCCF80917A0208952091BC0081
:1054900020FDFCCF60938502FC01208120938602D1
:1054A00020FD0CC0282FA7E8B2E0FC0102C08081DB
:1054B0008D9331968E2F821B8617C8F3109284022B
:1054C00088EF80937A0285EA8093BC0008958091EA
:1054D000BC0080FDFCCF1092840288EF80937A029A
:1054E00085EA8093BC0008952091BC0020FDFCCF8C
:1054F0002091840220FF0AC0A6E8B2E0FC0102C0AD
:105500009D9191939E2F981B9617D0F380918402C2
:10551000817008951F920F920FB60F9211242F934E
:105520003F938F939F93EF93FF938091B9008832BD
:10553000D1F0893240F48031A1F08831A1F0883077
:1055400009F04DC00EC0803459F1813420F4883305
:1055500009F045C042C08035B9F0883509F03FC038
:105560002DC010928A0280918A029091850289173B
:1055700068F5E82FF0E0EA57FD4F90819093BB006B
:105580008F5F80938A0218C080918A029091BB003D
:10559000E82FF0E0EA57FD4F90838F5F80938A02F7
:1055A00020918A0230E08091850290E001972817CF
:1055B000390714F485EC18C085E816C08091BB004B
:1055C000E0918A02F0E0EA57FD4F808380918402E7
:1055D00081608093840284E907C085EA05C08091D8
:1055E000B90080937A0284E08093BC00FF91EF9130
:1055F0009F918F913F912F910F900FBE0F901F9011
:1056000018951092C5008CE08093C40088E18093C7
:10561000C10086E08093C20008959091C00095FF7C
:10562000FCCF8093C60008958091C00087FFFCCF17
:105630008091C6000895CF93C82F8A3019F48DE069
:105640000E940D2B8C2F0E940D2B80E090E0CF91BB
:105650000895EF92FF920F931F93CF93DF937C01F6
:105660008B01C0E0D0E0015010400E94142B8D301F
:1056700099F0883021F42097C1F321970AC0803235
:10568000A0F3C017D1078CF7F701EC0FFD1F808343
:1056900021960E940D2BE9CFCE0DDF1D18828AE0E6
:1056A0000E940D2BDF91CF911F910F91FF90EF90F2
:1056B00008958A3019F48DE001D08AE0FF93EF93CA
:1056C000E0918B02F0918C02309709F00995EF91EF
:1056D000FF910895FC018591803011F0EADFFBCF46
:1056E0000895FF27E0E230E247FF0CC0419597FFA5
:1056F00009C0EDE26095709580959095611D711DD2
:10570000811D911D27FF02C0219530E350E2AA2799
:10571000660F771F881F991FAA1FA41710F0A41BDC
:1057200063955A95A9F7AA3008F0A95FA05DAF93D9
:10573000F395611571058105910541F7ED3211F47D
:10574000EF93F395F21718F43F93F395FBCF8F91F6
:10575000B0DFFA95E1F70895E991F99185918030EC
:1057600021F0853219F0A5DFF9CF089520E0E89403
:1057700055915532C1F3503311F4689455915A3311
:1057800048F4505390F3220F022E220F220F200DC7
:10579000250FF4CF0EF4219589919991533619F381
:1057A000533729F1533559F1BC0188279927E894DB
:1057B0005C3621F48991999168945591543639F465
:1057C00046EF7EF077FF0DC08FEF9FEF0AC0553791
:1057D0004AE039F0583540E121F0523642E009F014
:1057E0000895FF93EF937DDFEF91FF91B7CFFF9384
:1057F000EF93FC0181918030B9F35BDFFBCFFF9326
:10580000EF9368DFF1CFDF93CF93CDB7DEB7259667
:10581000A3DFCF91DF9108950B01DC01ED91FD91A4
:105820002227332744275527E8949AE001C0319670
:1058300060816032E1F3A8F16D3211F46894F7CF22
:105840006A3378F5603368F171F498E031966081DD
:10585000613248F1623611F492E003C0683719F4FE
:1058600090E1319660816132F0F0613608F060526B
:105870006053B8F06A3018F067506A3090F06917DA
:1058800080F481E2771B08F4790F76955795479558
:10589000379527958A95B9F7260F381F481F581F47
:1058A000E0CF80E001C081E04EF46627209530957E
:1058B00040955095261F361F461F561FFE93EE93A8
:1058C000D0012D933D934D935D9311240895CF9373
:1058D000DF93CDB7DEB7E5970FB6F894DEBF0FBE06
:1058E000CDBF0E942C050E94012B8DE09BE290937E
:1058F0008C0280938B0224B714BE00D000D0EDB789
:10590000FEB731968CED90E0ADB7BEB712969C9382
:105910008E931197228313820E94032C0F900F9075
:105920000F900F9088EE90E00E946A2B8AE091E041
:105930000E946A2B00D000D087E191E0EDB7FEB75E
:105940009283818384EA93E0948383830E94032C6F
:105950000F900F900F900F9088E291E00E946A2BB9
:105960000E94312A00D082E691E0ADB7BEB7129610
:105970009C938E9311970E94032C0F900F900E947E
:10598000392900D000D0EDB7FEB7319624E731E0D9
:10599000ADB7BEB712963C932E93119782831382B4
:1059A0000E94032C0F900F900F900F900E94DB2805
:1059B00000D000D0EDB7FEB7319629E831E0ADB7A1
:1059C000BEB712963C932E931197828313820E9446
:1059D000032C0F900F900F900F9044245524320108
:1059E0006CE1262E6DE0362E8EE30E94592B3D820F
:1059F0002C828CE19DE064E670E00E94292BEC8112
:105A0000FD81DF018D91BD83AC83843681F08536C5
:105A100038F48F3311F40C945637823629F7B4C119
:105A2000863609F415C38037F9F60C94483781811E
:105A30001196BD83AC83893609F471C0833709F4AC
:105A400091C0843689F6CE010496BE01665E7F4F12
:105A50000E940C2C882341F2CE010496BE016A5E9E
:105A60007F4F0E940C2C882321F44E8A5F8A688E17
:105A7000798E2E893F89488D598D8A8D6AE179E02A
:105A800001E00E940207882341F000D000D0EDB76A
:105A9000FEB7319620EA31E056C08E899F89A88DE5
:105AA000B98D2C013D010894411C511C611C711CD5
:105AB00000D000D000D027EA31E0EDB7FEB7328346
:105AC000218383839483A583B6830E94032C2DB7FF
:105AD0003EB72A5F3F4F0FB6F8943EBF0FBE2DBFB3
